{
  "abi": [
    {
      "anonymous": false,
      "inputs": [
        {
          "indexed": true,
          "internalType": "address",
          "name": "owner",
          "type": "address"
        },
        {
          "indexed": true,
          "internalType": "uint256",
          "name": "txIndex",
          "type": "uint256"
        }
      ],
      "name": "ConfirmTransaction",
      "type": "event"
    },
    {
      "anonymous": false,
      "inputs": [
        {
          "indexed": true,
          "internalType": "address",
          "name": "sender",
          "type": "address"
        },
        {
          "indexed": false,
          "internalType": "uint256",
          "name": "amount",
          "type": "uint256"
        },
        {
          "indexed": false,
          "internalType": "uint256",
          "name": "balance",
          "type": "uint256"
        }
      ],
      "name": "Deposit",
      "type": "event"
    },
    {
      "anonymous": false,
      "inputs": [
        {
          "indexed": true,
          "internalType": "address",
          "name": "owner",
          "type": "address"
        },
        {
          "indexed": true,
          "internalType": "uint256",
          "name": "txIndex",
          "type": "uint256"
        }
      ],
      "name": "ExecuteTransaction",
      "type": "event"
    },
    {
      "anonymous": false,
      "inputs": [
        {
          "indexed": false,
          "internalType": "uint8",
          "name": "version",
          "type": "uint8"
        }
      ],
      "name": "Initialized",
      "type": "event"
    },
    {
      "anonymous": false,
      "inputs": [
        {
          "indexed": true,
          "internalType": "address",
          "name": "owner",
          "type": "address"
        },
        {
          "indexed": true,
          "internalType": "uint256",
          "name": "txIndex",
          "type": "uint256"
        }
      ],
      "name": "RevokeConfirmation",
      "type": "event"
    },
    {
      "anonymous": false,
      "inputs": [
        {
          "indexed": true,
          "internalType": "address",
          "name": "owner",
          "type": "address"
        },
        {
          "indexed": true,
          "internalType": "uint256",
          "name": "txIndex",
          "type": "uint256"
        },
        {
          "indexed": true,
          "internalType": "address",
          "name": "to",
          "type": "address"
        },
        {
          "indexed": false,
          "internalType": "uint256",
          "name": "value",
          "type": "uint256"
        },
        {
          "indexed": false,
          "internalType": "bytes",
          "name": "data",
          "type": "bytes"
        }
      ],
      "name": "SubmitTransaction",
      "type": "event"
    },
    {
      "inputs": [
        {
          "internalType": "uint256",
          "name": "_txIndex",
          "type": "uint256"
        }
      ],
      "name": "confirmTransaction",
      "outputs": [],
      "stateMutability": "nonpayable",
      "type": "function"
    },
    {
      "inputs": [
        {
          "internalType": "uint256",
          "name": "_txIndex",
          "type": "uint256"
        }
      ],
      "name": "executeTransaction",
      "outputs": [],
      "stateMutability": "nonpayable",
      "type": "function"
    },
    {
      "inputs": [],
      "name": "getOwners",
      "outputs": [
        {
          "internalType": "address[]",
          "name": "",
          "type": "address[]"
        }
      ],
      "stateMutability": "view",
      "type": "function"
    },
    {
      "inputs": [
        {
          "internalType": "uint256",
          "name": "_txIndex",
          "type": "uint256"
        }
      ],
      "name": "getTransaction",
      "outputs": [
        {
          "internalType": "address",
          "name": "to",
          "type": "address"
        },
        {
          "internalType": "uint256",
          "name": "value",
          "type": "uint256"
        },
        {
          "internalType": "bytes",
          "name": "data",
          "type": "bytes"
        },
        {
          "internalType": "bool",
          "name": "executed",
          "type": "bool"
        },
        {
          "internalType": "uint256",
          "name": "numConfirmations",
          "type": "uint256"
        }
      ],
      "stateMutability": "view",
      "type": "function"
    },
    {
      "inputs": [],
      "name": "getTransactionCount",
      "outputs": [
        {
          "internalType": "uint256",
          "name": "",
          "type": "uint256"
        }
      ],
      "stateMutability": "view",
      "type": "function"
    },
    {
      "inputs": [
        {
          "internalType": "address[]",
          "name": "_owners",
          "type": "address[]"
        },
        {
          "internalType": "uint256",
          "name": "_numConfirmationsRequired",
          "type": "uint256"
        }
      ],
      "name": "initialize",
      "outputs": [],
      "stateMutability": "nonpayable",
      "type": "function"
    },
    {
      "inputs": [
        {
          "internalType": "uint256",
          "name": "",
          "type": "uint256"
        },
        {
          "internalType": "address",
          "name": "",
          "type": "address"
        }
      ],
      "name": "isConfirmed",
      "outputs": [
        {
          "internalType": "bool",
          "name": "",
          "type": "bool"
        }
      ],
      "stateMutability": "view",
      "type": "function"
    },
    {
      "inputs": [
        {
          "internalType": "address",
          "name": "",
          "type": "address"
        }
      ],
      "name": "isOwner",
      "outputs": [
        {
          "internalType": "bool",
          "name": "",
          "type": "bool"
        }
      ],
      "stateMutability": "view",
      "type": "function"
    },
    {
      "inputs": [],
      "name": "numConfirmationsRequired",
      "outputs": [
        {
          "internalType": "uint256",
          "name": "",
          "type": "uint256"
        }
      ],
      "stateMutability": "view",
      "type": "function"
    },
    {
      "inputs": [
        {
          "internalType": "uint256",
          "name": "",
          "type": "uint256"
        }
      ],
      "name": "owners",
      "outputs": [
        {
          "internalType": "address",
          "name": "",
          "type": "address"
        }
      ],
      "stateMutability": "view",
      "type": "function"
    },
    {
      "inputs": [
        {
          "internalType": "uint256",
          "name": "_txIndex",
          "type": "uint256"
        }
      ],
      "name": "revokeConfirmation",
      "outputs": [],
      "stateMutability": "nonpayable",
      "type": "function"
    },
    {
      "inputs": [
        {
          "internalType": "address",
          "name": "_to",
          "type": "address"
        },
        {
          "internalType": "uint256",
          "name": "_value",
          "type": "uint256"
        },
        {
          "internalType": "bytes",
          "name": "_data",
          "type": "bytes"
        }
      ],
      "name": "submitTransaction",
      "outputs": [],
      "stateMutability": "nonpayable",
      "type": "function"
    },
    {
      "inputs": [
        {
          "internalType": "uint256",
          "name": "",
          "type": "uint256"
        }
      ],
      "name": "transactions",
      "outputs": [
        {
          "internalType": "address",
          "name": "to",
          "type": "address"
        },
        {
          "internalType": "uint256",
          "name": "value",
          "type": "uint256"
        },
        {
          "internalType": "bytes",
          "name": "data",
          "type": "bytes"
        },
        {
          "internalType": "bool",
          "name": "executed",
          "type": "bool"
        },
        {
          "internalType": "uint256",
          "name": "numConfirmations",
          "type": "uint256"
        }
      ],
      "stateMutability": "view",
      "type": "function"
    },
    {
      "stateMutability": "payable",
      "type": "receive"
    }
  ],
  "bytecode": {
    "object": "0x608060405234801561001057600080fd5b50611ea6806100206000396000f3fe6080604052600436106100d65760003560e01c806380f59a651161007f578063c01a8c8411610059578063c01a8c84146102b5578063c6427474146102d5578063d0549b85146102f5578063ee22610b1461030b57600080fd5b806380f59a65146102385780639ace38c214610273578063a0e67e2b1461029357600080fd5b80632f54bf6e116100b05780632f54bf6e146101a757806333ea3dc8146101e757806360b5bb3f1461021857600080fd5b8063025e7c271461011c57806320ea8d86146101665780632e7700f01461018857600080fd5b36610117576040805134815247602082015233917f90890809c654f11d6e72a28fa60149770a0d11ec6c92319d6ceb2bb0a4ea1a15910160405180910390a2005b600080fd5b34801561012857600080fd5b5061013c6101373660046117a9565b61032b565b60405173ffffffffffffffffffffffffffffffffffffffff90911681526020015b60405180910390f35b34801561017257600080fd5b506101866101813660046117a9565b610362565b005b34801561019457600080fd5b506003545b60405190815260200161015d565b3480156101b357600080fd5b506101d76101c23660046117eb565b60046020526000908152604090205460ff1681565b604051901515815260200161015d565b3480156101f357600080fd5b506102076102023660046117a9565b6106a4565b60405161015d959493929190611871565b34801561022457600080fd5b50610186610233366004611938565b6107ac565b34801561024457600080fd5b506101d76102533660046119eb565b600560209081526000928352604080842090915290825290205460ff1681565b34801561027f57600080fd5b5061020761028e3660046117a9565b610cc1565b34801561029f57600080fd5b506102a8610da7565b60405161015d9190611a17565b3480156102c157600080fd5b506101866102d03660046117a9565b610e16565b3480156102e157600080fd5b506101866102f0366004611a71565b61115b565b34801561030157600080fd5b5061019960015481565b34801561031757600080fd5b506101866103263660046117a9565b61139b565b6002818154811061033b57600080fd5b60009182526020909120015473ffffffffffffffffffffffffffffffffffffffff16905081565b3360009081526004602052604090205460ff16610406576040517f08c379a000000000000000000000000000000000000000000000000000000000815260206004820152603660248201527f4d756c746953696757616c6c65743a2063616c6c6572206973206e6f7420746860448201527f65206f776e6572206f66207468652077616c6c65742e0000000000000000000060648201526084015b60405180910390fd5b60035481908110610499576040517f08c379a000000000000000000000000000000000000000000000000000000000815260206004820152602a60248201527f4d756c746953696757616c6c65743a205472616e73616374696f6e20646f657360448201527f206e6f742065786973740000000000000000000000000000000000000000000060648201526084016103fd565b81600381815481106104ad576104ad611b3e565b600091825260209091206003600590920201015460ff1615610551576040517f08c379a000000000000000000000000000000000000000000000000000000000815260206004820152602c60248201527f4d756c746953696757616c6c65743a205472616e73616374696f6e20616c726560448201527f616479206578656375746564000000000000000000000000000000000000000060648201526084016103fd565b60006003848154811061056657610566611b3e565b600091825260208083208784526005808352604080862033875290935291909320549102909101915060ff1661061e576040517f08c379a000000000000000000000000000000000000000000000000000000000815260206004820152602960248201527f4d756c746953696757616c6c65743a205472616e73616374696f6e206e6f742060448201527f636f6e6669726d6564000000000000000000000000000000000000000000000060648201526084016103fd565b60018160040160008282546106339190611b9c565b9091555050600084815260056020908152604080832033808552925280832080547fffffffffffffffffffffffffffffffffffffffffffffffffffffffffffffff001690555186927ff0dca620e2e81f7841d07bcc105e1704fb01475b278a9d4c236e1c62945edd5591a350505050565b60008060606000806000600387815481106106c1576106c1611b3e565b60009182526020909120600590910201805460018201546003830154600484015460028501805495965073ffffffffffffffffffffffffffffffffffffffff9094169492939260ff90921691839061071890611bb5565b80601f016020809104026020016040519081016040528092919081815260200182805461074490611bb5565b80156107915780601f1061076657610100808354040283529160200191610791565b820191906000526020600020905b81548152906001019060200180831161077457829003601f168201915b50505050509250955095509550955095505091939590929450565b600054610100900460ff16158080156107cc5750600054600160ff909116105b806107e65750303b1580156107e6575060005460ff166001145b610872576040517f08c379a000000000000000000000000000000000000000000000000000000000815260206004820152602e60248201527f496e697469616c697a61626c653a20636f6e747261637420697320616c72656160448201527f647920696e697469616c697a656400000000000000000000000000000000000060648201526084016103fd565b600080547fffffffffffffffffffffffffffffffffffffffffffffffffffffffffffffff0016600117905580156108d057600080547fffffffffffffffffffffffffffffffffffffffffffffffffffffffffffff00ff166101001790555b6000835111610961576040517f08c379a000000000000000000000000000000000000000000000000000000000815260206004820152602960248201527f4d756c746953696757616c6c65743a204e756d626572206f66206f776e65727360448201527f20617265207a65726f000000000000000000000000000000000000000000000060648201526084016103fd565b600082118015610972575082518211155b6109fe576040517f08c379a000000000000000000000000000000000000000000000000000000000815260206004820152603160248201527f4d756c746953696757616c6c65743a20526571756972656420636f6e6669726d60448201527f6174696f6e7320697320696e76616c696400000000000000000000000000000060648201526084016103fd565b60005b8351811015610c53576000848281518110610a1e57610a1e611b3e565b60200260200101519050600073ffffffffffffffffffffffffffffffffffffffff168173ffffffffffffffffffffffffffffffffffffffff1603610ae4576040517f08c379a000000000000000000000000000000000000000000000000000000000815260206004820152602260248201527f4d756c746953696757616c6c65743a203078302063616e2774206265206f776e60448201527f657200000000000000000000000000000000000000000000000000000000000060648201526084016103fd565b73ffffffffffffffffffffffffffffffffffffffff811660009081526004602052604090205460ff1615610b9a576040517f08c379a000000000000000000000000000000000000000000000000000000000815260206004820152602360248201527f4d756c746953696757616c6c65743a204f776e6572206973206e6f7420756e6960448201527f717565000000000000000000000000000000000000000000000000000000000060648201526084016103fd565b73ffffffffffffffffffffffffffffffffffffffff16600081815260046020526040812080547fffffffffffffffffffffffffffffffffffffffffffffffffffffffffffffff001660019081179091556002805491820181559091527f405787fa12a823e0f2b7631cc41b3ba8828b3321ca811111fa75cd3aa3bb5ace0180547fffffffffffffffffffffffff000000000000000000000000000000000000000016909117905580610c4b81611c08565b915050610a01565b5060018290558015610cbc57600080547fffffffffffffffffffffffffffffffffffffffffffffffffffffffffffff00ff169055604051600181527f7f26b83ff96e1f2b6a682f133852f6798a09c465da95921460cefb38474024989060200160405180910390a15b505050565b60038181548110610cd157600080fd5b600091825260209091206005909102018054600182015460028301805473ffffffffffffffffffffffffffffffffffffffff9093169450909291610d1490611bb5565b80601f0160208091040260200160405190810160405280929190818152602001828054610d4090611bb5565b8015610d8d5780601f10610d6257610100808354040283529160200191610d8d565b820191906000526020600020905b815481529060010190602001808311610d7057829003601f168201915b505050506003830154600490930154919260ff1691905085565b60606002805480602002602001604051908101604052809291908181526020018280548015610e0c57602002820191906000526020600020905b815473ffffffffffffffffffffffffffffffffffffffff168152600190910190602001808311610de1575b5050505050905090565b3360009081526004602052604090205460ff16610eb5576040517f08c379a000000000000000000000000000000000000000000000000000000000815260206004820152603660248201527f4d756c746953696757616c6c65743a2063616c6c6572206973206e6f7420746860448201527f65206f776e6572206f66207468652077616c6c65742e0000000000000000000060648201526084016103fd565b60035481908110610f48576040517f08c379a000000000000000000000000000000000000000000000000000000000815260206004820152602a60248201527f4d756c746953696757616c6c65743a205472616e73616374696f6e20646f657360448201527f206e6f742065786973740000000000000000000000000000000000000000000060648201526084016103fd565b8160038181548110610f5c57610f5c611b3e565b600091825260209091206003600590920201015460ff1615611000576040517f08c379a000000000000000000000000000000000000000000000000000000000815260206004820152602c60248201527f4d756c746953696757616c6c65743a205472616e73616374696f6e20616c726560448201527f616479206578656375746564000000000000000000000000000000000000000060648201526084016103fd565b6000838152600560209081526040808320338452909152902054839060ff16156110ac576040517f08c379a000000000000000000000000000000000000000000000000000000000815260206004820152602d60248201527f4d756c746953696757616c6c65743a205472616e73616374696f6e20616c726560448201527f61647920636f6e6669726d65640000000000000000000000000000000000000060648201526084016103fd565b6000600385815481106110c1576110c1611b3e565b9060005260206000209060050201905060018160040160008282546110e69190611c40565b9091555050600085815260056020908152604080832033808552925280832080547fffffffffffffffffffffffffffffffffffffffffffffffffffffffffffffff001660011790555187927f5cbe105e36805f7820e291f799d5794ff948af2a5f664e580382defb6339004191a35050505050565b3360009081526004602052604090205460ff166111fa576040517f08c379a000000000000000000000000000000000000000000000000000000000815260206004820152603660248201527f4d756c746953696757616c6c65743a2063616c6c6572206973206e6f7420746860448201527f65206f776e6572206f66207468652077616c6c65742e0000000000000000000060648201526084016103fd565b600380546040805160a08101825273ffffffffffffffffffffffffffffffffffffffff878116825260208201878152928201868152600060608401819052608084018190526001860187559590955281517fc2575a0e9e593c00f959f8c92f12db2869c3395a3b0502d05e2516446f71f85b6005860290810180547fffffffffffffffffffffffff0000000000000000000000000000000000000000169290931691909117825592517fc2575a0e9e593c00f959f8c92f12db2869c3395a3b0502d05e2516446f71f85c84015593519293909290917fc2575a0e9e593c00f959f8c92f12db2869c3395a3b0502d05e2516446f71f85d01906112fc9082611ca1565b5060608201516003820180547fffffffffffffffffffffffffffffffffffffffffffffffffffffffffffffff001691151591909117905560809091015160049091015560405173ffffffffffffffffffffffffffffffffffffffff851690829033907fd5a05bf70715ad82a09a756320284a1b54c9ff74cd0f8cce6219e79b563fe59d9061138d9088908890611dbb565b60405180910390a450505050565b3360009081526004602052604090205460ff1661143a576040517f08c379a000000000000000000000000000000000000000000000000000000000815260206004820152603660248201527f4d756c746953696757616c6c65743a2063616c6c6572206973206e6f7420746860448201527f65206f776e6572206f66207468652077616c6c65742e0000000000000000000060648201526084016103fd565b600354819081106114cd576040517f08c379a000000000000000000000000000000000000000000000000000000000815260206004820152602a60248201527f4d756c746953696757616c6c65743a205472616e73616374696f6e20646f657360448201527f206e6f742065786973740000000000000000000000000000000000000000000060648201526084016103fd565b81600381815481106114e1576114e1611b3e565b600091825260209091206003600590920201015460ff1615611585576040517f08c379a000000000000000000000000000000000000000000000000000000000815260206004820152602c60248201527f4d756c746953696757616c6c65743a205472616e73616374696f6e20616c726560448201527f616479206578656375746564000000000000000000000000000000000000000060648201526084016103fd565b60006003848154811061159a5761159a611b3e565b9060005260206000209060050201905060015481600401541015611640576040517f08c379a000000000000000000000000000000000000000000000000000000000815260206004820152603c60248201527f4d756c746953696757616c6c65743a204e756d626572206f6620636f6e66697260448201527f6d6174696f6e206973206c657373207468616e2072657175697265640000000060648201526084016103fd565b6003810180547fffffffffffffffffffffffffffffffffffffffffffffffffffffffffffffff0016600190811790915581549082015460405160009273ffffffffffffffffffffffffffffffffffffffff1691906116a2906002860190611ddc565b60006040518083038185875af1925050503d80600081146116df576040519150601f19603f3d011682016040523d82523d6000602084013e6116e4565b606091505b5050905080611775576040517f08c379a000000000000000000000000000000000000000000000000000000000815260206004820152602760248201527f4d756c746953696757616c6c65743a205472616e73616374696f6e2063616c6c60448201527f206661696c65640000000000000000000000000000000000000000000000000060648201526084016103fd565b604051859033907f5445f318f4f5fcfb66592e68e0cc5822aa15664039bd5f0ffde24c5a8142b1ac90600090a35050505050565b6000602082840312156117bb57600080fd5b5035919050565b803573ffffffffffffffffffffffffffffffffffffffff811681146117e657600080fd5b919050565b6000602082840312156117fd57600080fd5b611806826117c2565b9392505050565b6000815180845260005b8181101561183357602081850181015186830182015201611817565b5060006020828601015260207fffffffffffffffffffffffffffffffffffffffffffffffffffffffffffffffe0601f83011685010191505092915050565b73ffffffffffffffffffffffffffffffffffffffff8616815284602082015260a0604082015260006118a660a083018661180d565b931515606083015250608001529392505050565b7f4e487b7100000000000000000000000000000000000000000000000000000000600052604160045260246000fd5b604051601f82017fffffffffffffffffffffffffffffffffffffffffffffffffffffffffffffffe016810167ffffffffffffffff81118282101715611930576119306118ba565b604052919050565b6000806040838503121561194b57600080fd5b823567ffffffffffffffff8082111561196357600080fd5b818501915085601f83011261197757600080fd5b813560208282111561198b5761198b6118ba565b8160051b925061199c8184016118e9565b82815292840181019281810190898511156119b657600080fd5b948201945b848610156119db576119cc866117c2565b825294820194908201906119bb565b9997909101359750505050505050565b600080604083850312156119fe57600080fd5b82359150611a0e602084016117c2565b90509250929050565b6020808252825182820181905260009190848201906040850190845b81811015611a6557835173ffffffffffffffffffffffffffffffffffffffff1683529284019291840191600101611a33565b50909695505050505050565b600080600060608486031215611a8657600080fd5b611a8f846117c2565b92506020808501359250604085013567ffffffffffffffff80821115611ab457600080fd5b818701915087601f830112611ac857600080fd5b813581811115611ada57611ada6118ba565b611b0a847fffffffffffffffffffffffffffffffffffffffffffffffffffffffffffffffe0601f840116016118e9565b91508082528884828501011115611b2057600080fd5b80848401858401376000848284010152508093505050509250925092565b7f4e487b7100000000000000000000000000000000000000000000000000000000600052603260045260246000fd5b7f4e487b7100000000000000000000000000000000000000000000000000000000600052601160045260246000fd5b81810381811115611baf57611baf611b6d565b92915050565b600181811c90821680611bc957607f821691505b602082108103611c02577f4e487b7100000000000000000000000000000000000000000000000000000000600052602260045260246000fd5b50919050565b60007fffffffffffffffffffffffffffffffffffffffffffffffffffffffffffffffff8203611c3957611c39611b6d565b5060010190565b80820180821115611baf57611baf611b6d565b601f821115610cbc57600081815260208120601f850160051c81016020861015611c7a5750805b601f850160051c820191505b81811015611c9957828155600101611c86565b505050505050565b815167ffffffffffffffff811115611cbb57611cbb6118ba565b611ccf81611cc98454611bb5565b84611c53565b602080601f831160018114611d225760008415611cec5750858301515b7fffffffffffffffffffffffffffffffffffffffffffffffffffffffffffffffff600386901b1c1916600185901b178555611c99565b6000858152602081207fffffffffffffffffffffffffffffffffffffffffffffffffffffffffffffffe08616915b82811015611d6f57888601518255948401946001909101908401611d50565b5085821015611dab57878501517fffffffffffffffffffffffffffffffffffffffffffffffffffffffffffffffff600388901b60f8161c191681555b5050505050600190811b01905550565b828152604060208201526000611dd4604083018461180d565b949350505050565b6000808354611dea81611bb5565b60018281168015611e025760018114611e3557611e64565b7fffffffffffffffffffffffffffffffffffffffffffffffffffffffffffffff0084168752821515830287019450611e64565b8760005260208060002060005b85811015611e5b5781548a820152908401908201611e42565b50505082870194505b5092969550505050505056fea26469706673582212200867c2c8152eda5441d53a4e88e4facdc4fb024e4fc5095fd8f421bec36e0a6864736f6c63430008110033",
    "linkReferences": {}
  },
  "methodIdentifiers": {
    "confirmTransaction(uint256)": "c01a8c84",
    "executeTransaction(uint256)": "ee22610b",
    "getOwners()": "a0e67e2b",
    "getTransaction(uint256)": "33ea3dc8",
    "getTransactionCount()": "2e7700f0",
    "initialize(address[],uint256)": "60b5bb3f",
    "isConfirmed(uint256,address)": "80f59a65",
    "isOwner(address)": "2f54bf6e",
    "numConfirmationsRequired()": "d0549b85",
    "owners(uint256)": "025e7c27",
    "revokeConfirmation(uint256)": "20ea8d86",
    "submitTransaction(address,uint256,bytes)": "c6427474",
    "transactions(uint256)": "9ace38c2"
  },
  "id": 48
}