{
  "abi": [
    {
      "inputs": [
        {
          "internalType": "bytes32",
          "name": "salt",
          "type": "bytes32"
        },
        {
          "internalType": "bytes",
          "name": "creationCode",
          "type": "bytes"
        }
      ],
      "name": "deploy",
      "outputs": [
        {
          "internalType": "address",
          "name": "deployed",
          "type": "address"
        }
      ],
      "stateMutability": "payable",
      "type": "function"
    },
    {
      "inputs": [
        {
          "internalType": "address",
          "name": "deployer",
          "type": "address"
        },
        {
          "internalType": "bytes32",
          "name": "salt",
          "type": "bytes32"
        }
      ],
      "name": "getDeployed",
      "outputs": [
        {
          "internalType": "address",
          "name": "deployed",
          "type": "address"
        }
      ],
      "stateMutability": "view",
      "type": "function"
    }
  ],
  "bytecode": {
    "object": "0x608060405234801561001057600080fd5b5061063b806100206000396000f3fe6080604052600436106100295760003560e01c806350f1c4641461002e578063cdcb760a14610077575b600080fd5b34801561003a57600080fd5b5061004e610049366004610489565b61008a565b60405173ffffffffffffffffffffffffffffffffffffffff909116815260200160405180910390f35b61004e6100853660046104fd565b6100ee565b6040517fffffffffffffffffffffffffffffffffffffffff000000000000000000000000606084901b166020820152603481018290526000906054016040516020818303038152906040528051906020012091506100e78261014c565b9392505050565b6040517fffffffffffffffffffffffffffffffffffffffff0000000000000000000000003360601b166020820152603481018390526000906054016040516020818303038152906040528051906020012092506100e78383346102b2565b604080518082018252601081527f67363d3d37363d34f03d5260086018f30000000000000000000000000000000060209182015290517fff00000000000000000000000000000000000000000000000000000000000000918101919091527fffffffffffffffffffffffffffffffffffffffff0000000000000000000000003060601b166021820152603581018290527f21c35dbe1b344a2488cf3321d6ce542f8e9f305544ff09e4993a62319a497c1f60558201526000908190610228906075015b6040516020818303038152906040528051906020012090565b6040517fd69400000000000000000000000000000000000000000000000000000000000060208201527fffffffffffffffffffffffffffffffffffffffff000000000000000000000000606083901b1660228201527f010000000000000000000000000000000000000000000000000000000000000060368201529091506100e79060370161020f565b6000806040518060400160405280601081526020017f67363d3d37363d34f03d5260086018f30000000000000000000000000000000081525090506000858251602084016000f5905073ffffffffffffffffffffffffffffffffffffffff811661037d576040517f08c379a000000000000000000000000000000000000000000000000000000000815260206004820152601160248201527f4445504c4f594d454e545f4641494c454400000000000000000000000000000060448201526064015b60405180910390fd5b6103868661014c565b925060008173ffffffffffffffffffffffffffffffffffffffff1685876040516103b091906105d6565b60006040518083038185875af1925050503d80600081146103ed576040519150601f19603f3d011682016040523d82523d6000602084013e6103f2565b606091505b50509050808015610419575073ffffffffffffffffffffffffffffffffffffffff84163b15155b61047f576040517f08c379a000000000000000000000000000000000000000000000000000000000815260206004820152601560248201527f494e495449414c495a4154494f4e5f4641494c454400000000000000000000006044820152606401610374565b5050509392505050565b6000806040838503121561049c57600080fd5b823573ffffffffffffffffffffffffffffffffffffffff811681146104c057600080fd5b946020939093013593505050565b7f4e487b7100000000000000000000000000000000000000000000000000000000600052604160045260246000fd5b6000806040838503121561051057600080fd5b82359150602083013567ffffffffffffffff8082111561052f57600080fd5b818501915085601f83011261054357600080fd5b813581811115610555576105556104ce565b604051601f82017fffffffffffffffffffffffffffffffffffffffffffffffffffffffffffffffe0908116603f0116810190838211818310171561059b5761059b6104ce565b816040528281528860208487010111156105b457600080fd5b8260208601602083013760006020848301015280955050505050509250929050565b6000825160005b818110156105f757602081860181015185830152016105dd565b50600092019182525091905056fea2646970667358221220dfec35d08c21e923f69ecaeb4c27f147bbf981be10ee8fc92b67ddff06d4159764736f6c63430008110033",
    "linkReferences": {}
  },
  "methodIdentifiers": {
    "deploy(bytes32,bytes)": "cdcb760a",
    "getDeployed(address,bytes32)": "50f1c464"
  },
  "id": 2
}